{
  "_format": "hh-sol-artifact-1",
  "contractName": "Marketplace",
  "sourceName": "contracts/Market.sol",
  "abi": [
    {
      "inputs": [
        {
          "internalType": "address",
          "name": "_usdt",
          "type": "address"
        },
        {
          "internalType": "address",
          "name": "_mspc",
          "type": "address"
        }
      ],
      "stateMutability": "nonpayable",
      "type": "constructor"
    },
    {
      "anonymous": false,
      "inputs": [
        {
          "indexed": true,
          "internalType": "uint256",
          "name": "itemId",
          "type": "uint256"
        },
        {
          "indexed": true,
          "internalType": "address",
          "name": "nftContract",
          "type": "address"
        },
        {
          "indexed": true,
          "internalType": "uint256",
          "name": "tokenId",
          "type": "uint256"
        },
        {
          "indexed": false,
          "internalType": "address",
          "name": "author",
          "type": "address"
        },
        {
          "indexed": false,
          "internalType": "address",
          "name": "holder",
          "type": "address"
        },
        {
          "indexed": false,
          "internalType": "uint256",
          "name": "mspcPrice",
          "type": "uint256"
        },
        {
          "indexed": false,
          "internalType": "uint256",
          "name": "usdtPrice",
          "type": "uint256"
        },
        {
          "indexed": false,
          "internalType": "bool",
          "name": "sold",
          "type": "bool"
        }
      ],
      "name": "MarketItemMinted",
      "type": "event"
    },
    {
      "anonymous": false,
      "inputs": [
        {
          "indexed": true,
          "internalType": "uint256",
          "name": "itemId",
          "type": "uint256"
        },
        {
          "indexed": true,
          "internalType": "address",
          "name": "nftContract",
          "type": "address"
        },
        {
          "indexed": true,
          "internalType": "uint256",
          "name": "tokenId",
          "type": "uint256"
        },
        {
          "indexed": false,
          "internalType": "address",
          "name": "from",
          "type": "address"
        },
        {
          "indexed": false,
          "internalType": "address",
          "name": "to",
          "type": "address"
        },
        {
          "indexed": false,
          "internalType": "uint256",
          "name": "mspcPrice",
          "type": "uint256"
        },
        {
          "indexed": false,
          "internalType": "uint256",
          "name": "usdtPrice",
          "type": "uint256"
        }
      ],
      "name": "MarketItemPurchased",
      "type": "event"
    },
    {
      "anonymous": false,
      "inputs": [
        {
          "indexed": true,
          "internalType": "address",
          "name": "previousOwner",
          "type": "address"
        },
        {
          "indexed": true,
          "internalType": "address",
          "name": "newOwner",
          "type": "address"
        }
      ],
      "name": "OwnershipTransferred",
      "type": "event"
    },
    {
      "inputs": [
        {
          "internalType": "uint256",
          "name": "_nftId",
          "type": "uint256"
        },
        {
          "internalType": "uint256",
          "name": "_newPrice",
          "type": "uint256"
        }
      ],
      "name": "changeMspcPriceById",
      "outputs": [],
      "stateMutability": "nonpayable",
      "type": "function"
    },
    {
      "inputs": [
        {
          "internalType": "uint256",
          "name": "_nftId",
          "type": "uint256"
        },
        {
          "internalType": "uint256",
          "name": "_newPrice",
          "type": "uint256"
        }
      ],
      "name": "changeUsdtPriceById",
      "outputs": [],
      "stateMutability": "nonpayable",
      "type": "function"
    },
    {
      "inputs": [],
      "name": "fetchItemsCreated",
      "outputs": [
        {
          "components": [
            {
              "internalType": "uint256",
              "name": "itemId",
              "type": "uint256"
            },
            {
              "internalType": "address",
              "name": "nftContract",
              "type": "address"
            },
            {
              "internalType": "uint256",
              "name": "tokenId",
              "type": "uint256"
            },
            {
              "internalType": "address payable",
              "name": "author",
              "type": "address"
            },
            {
              "internalType": "address payable",
              "name": "holder",
              "type": "address"
            },
            {
              "internalType": "uint256",
              "name": "mspcPrice",
              "type": "uint256"
            },
            {
              "internalType": "uint256",
              "name": "usdtPrice",
              "type": "uint256"
            },
            {
              "internalType": "bool",
              "name": "sold",
              "type": "bool"
            }
          ],
          "internalType": "struct Marketplace.MarketItem[]",
          "name": "",
          "type": "tuple[]"
        }
      ],
      "stateMutability": "view",
      "type": "function"
    },
    {
      "inputs": [
        {
          "internalType": "address",
          "name": "_nftContract",
          "type": "address"
        }
      ],
      "name": "fetchMarketItemByAddress",
      "outputs": [
        {
          "components": [
            {
              "internalType": "uint256",
              "name": "itemId",
              "type": "uint256"
            },
            {
              "internalType": "address",
              "name": "nftContract",
              "type": "address"
            },
            {
              "internalType": "uint256",
              "name": "tokenId",
              "type": "uint256"
            },
            {
              "internalType": "address payable",
              "name": "author",
              "type": "address"
            },
            {
              "internalType": "address payable",
              "name": "holder",
              "type": "address"
            },
            {
              "internalType": "uint256",
              "name": "mspcPrice",
              "type": "uint256"
            },
            {
              "internalType": "uint256",
              "name": "usdtPrice",
              "type": "uint256"
            },
            {
              "internalType": "bool",
              "name": "sold",
              "type": "bool"
            }
          ],
          "internalType": "struct Marketplace.MarketItem[]",
          "name": "",
          "type": "tuple[]"
        }
      ],
      "stateMutability": "view",
      "type": "function"
    },
    {
      "inputs": [
        {
          "internalType": "uint256",
          "name": "cursor",
          "type": "uint256"
        },
        {
          "internalType": "uint256",
          "name": "howMany",
          "type": "uint256"
        }
      ],
      "name": "fetchMarketItemsWithCursor",
      "outputs": [
        {
          "components": [
            {
              "internalType": "uint256",
              "name": "itemId",
              "type": "uint256"
            },
            {
              "internalType": "address",
              "name": "nftContract",
              "type": "address"
            },
            {
              "internalType": "uint256",
              "name": "tokenId",
              "type": "uint256"
            },
            {
              "internalType": "address payable",
              "name": "author",
              "type": "address"
            },
            {
              "internalType": "address payable",
              "name": "holder",
              "type": "address"
            },
            {
              "internalType": "uint256",
              "name": "mspcPrice",
              "type": "uint256"
            },
            {
              "internalType": "uint256",
              "name": "usdtPrice",
              "type": "uint256"
            },
            {
              "internalType": "bool",
              "name": "sold",
              "type": "bool"
            }
          ],
          "internalType": "struct Marketplace.MarketItem[]",
          "name": "",
          "type": "tuple[]"
        },
        {
          "internalType": "uint256",
          "name": "newCursor",
          "type": "uint256"
        }
      ],
      "stateMutability": "view",
      "type": "function"
    },
    {
      "inputs": [
        {
          "internalType": "uint256",
          "name": "cursor",
          "type": "uint256"
        },
        {
          "internalType": "uint256",
          "name": "howMany",
          "type": "uint256"
        },
        {
          "internalType": "address",
          "name": "nftContract",
          "type": "address"
        }
      ],
      "name": "fetchMarketItemsWithCursorMr",
      "outputs": [
        {
          "components": [
            {
              "internalType": "uint256",
              "name": "itemId",
              "type": "uint256"
            },
            {
              "internalType": "address",
              "name": "nftContract",
              "type": "address"
            },
            {
              "internalType": "uint256",
              "name": "tokenId",
              "type": "uint256"
            },
            {
              "internalType": "address payable",
              "name": "author",
              "type": "address"
            },
            {
              "internalType": "address payable",
              "name": "holder",
              "type": "address"
            },
            {
              "internalType": "uint256",
              "name": "mspcPrice",
              "type": "uint256"
            },
            {
              "internalType": "uint256",
              "name": "usdtPrice",
              "type": "uint256"
            },
            {
              "internalType": "bool",
              "name": "sold",
              "type": "bool"
            }
          ],
          "internalType": "struct Marketplace.MarketItem[]",
          "name": "",
          "type": "tuple[]"
        },
        {
          "internalType": "uint256",
          "name": "newCursor",
          "type": "uint256"
        }
      ],
      "stateMutability": "view",
      "type": "function"
    },
    {
      "inputs": [
        {
          "internalType": "uint256",
          "name": "cursor",
          "type": "uint256"
        },
        {
          "internalType": "uint256",
          "name": "howMany",
          "type": "uint256"
        },
        {
          "internalType": "address",
          "name": "nftContract",
          "type": "address"
        }
      ],
      "name": "fetchMarketItemsWithCursorMs",
      "outputs": [
        {
          "components": [
            {
              "internalType": "uint256",
              "name": "itemId",
              "type": "uint256"
            },
            {
              "internalType": "address",
              "name": "nftContract",
              "type": "address"
            },
            {
              "internalType": "uint256",
              "name": "tokenId",
              "type": "uint256"
            },
            {
              "internalType": "address payable",
              "name": "author",
              "type": "address"
            },
            {
              "internalType": "address payable",
              "name": "holder",
              "type": "address"
            },
            {
              "internalType": "uint256",
              "name": "mspcPrice",
              "type": "uint256"
            },
            {
              "internalType": "uint256",
              "name": "usdtPrice",
              "type": "uint256"
            },
            {
              "internalType": "bool",
              "name": "sold",
              "type": "bool"
            }
          ],
          "internalType": "struct Marketplace.MarketItem[]",
          "name": "",
          "type": "tuple[]"
        },
        {
          "internalType": "uint256",
          "name": "newCursor",
          "type": "uint256"
        }
      ],
      "stateMutability": "view",
      "type": "function"
    },
    {
      "inputs": [],
      "name": "fetchMyNFTs",
      "outputs": [
        {
          "components": [
            {
              "internalType": "uint256",
              "name": "itemId",
              "type": "uint256"
            },
            {
              "internalType": "address",
              "name": "nftContract",
              "type": "address"
            },
            {
              "internalType": "uint256",
              "name": "tokenId",
              "type": "uint256"
            },
            {
              "internalType": "address payable",
              "name": "author",
              "type": "address"
            },
            {
              "internalType": "address payable",
              "name": "holder",
              "type": "address"
            },
            {
              "internalType": "uint256",
              "name": "mspcPrice",
              "type": "uint256"
            },
            {
              "internalType": "uint256",
              "name": "usdtPrice",
              "type": "uint256"
            },
            {
              "internalType": "bool",
              "name": "sold",
              "type": "bool"
            }
          ],
          "internalType": "struct Marketplace.MarketItem[]",
          "name": "",
          "type": "tuple[]"
        }
      ],
      "stateMutability": "view",
      "type": "function"
    },
    {
      "inputs": [],
      "name": "getMarketItemCount",
      "outputs": [
        {
          "internalType": "uint256",
          "name": "",
          "type": "uint256"
        }
      ],
      "stateMutability": "view",
      "type": "function"
    },
    {
      "inputs": [],
      "name": "itemIds",
      "outputs": [
        {
          "internalType": "uint256",
          "name": "_value",
          "type": "uint256"
        }
      ],
      "stateMutability": "view",
      "type": "function"
    },
    {
      "inputs": [],
      "name": "maxGiveAway",
      "outputs": [
        {
          "internalType": "uint256",
          "name": "",
          "type": "uint256"
        }
      ],
      "stateMutability": "view",
      "type": "function"
    },
    {
      "inputs": [],
      "name": "minMspc",
      "outputs": [
        {
          "internalType": "uint256",
          "name": "",
          "type": "uint256"
        }
      ],
      "stateMutability": "view",
      "type": "function"
    },
    {
      "inputs": [
        {
          "internalType": "address",
          "name": "_nftContract",
          "type": "address"
        },
        {
          "internalType": "uint256",
          "name": "_tokenId",
          "type": "uint256"
        },
        {
          "internalType": "uint256",
          "name": "_usdtPrice",
          "type": "uint256"
        }
      ],
      "name": "mintMarketItem",
      "outputs": [],
      "stateMutability": "nonpayable",
      "type": "function"
    },
    {
      "inputs": [],
      "name": "mspc",
      "outputs": [
        {
          "internalType": "contract IERC20",
          "name": "",
          "type": "address"
        }
      ],
      "stateMutability": "view",
      "type": "function"
    },
    {
      "inputs": [],
      "name": "owner",
      "outputs": [
        {
          "internalType": "address",
          "name": "",
          "type": "address"
        }
      ],
      "stateMutability": "view",
      "type": "function"
    },
    {
      "inputs": [
        {
          "internalType": "address",
          "name": "_nftContract",
          "type": "address"
        },
        {
          "internalType": "uint256",
          "name": "_itemId",
          "type": "uint256"
        },
        {
          "internalType": "uint256",
          "name": "_amountOfMspc",
          "type": "uint256"
        }
      ],
      "name": "purchaseMarketItemByMspc",
      "outputs": [],
      "stateMutability": "nonpayable",
      "type": "function"
    },
    {
      "inputs": [
        {
          "internalType": "address",
          "name": "_nftContract",
          "type": "address"
        },
        {
          "internalType": "uint256",
          "name": "_itemId",
          "type": "uint256"
        },
        {
          "internalType": "uint256",
          "name": "_amountOfUsdt",
          "type": "uint256"
        }
      ],
      "name": "purchaseMarketItemByUsdt",
      "outputs": [],
      "stateMutability": "nonpayable",
      "type": "function"
    },
    {
      "inputs": [],
      "name": "renounceOwnership",
      "outputs": [],
      "stateMutability": "nonpayable",
      "type": "function"
    },
    {
      "inputs": [],
      "name": "royalties",
      "outputs": [
        {
          "internalType": "uint256",
          "name": "",
          "type": "uint256"
        }
      ],
      "stateMutability": "view",
      "type": "function"
    },
    {
      "inputs": [
        {
          "internalType": "uint256",
          "name": "_msxGiveAway",
          "type": "uint256"
        }
      ],
      "name": "setMaxGiveAway",
      "outputs": [],
      "stateMutability": "nonpayable",
      "type": "function"
    },
    {
      "inputs": [
        {
          "internalType": "uint256",
          "name": "_minMspc",
          "type": "uint256"
        }
      ],
      "name": "setMinMspc",
      "outputs": [],
      "stateMutability": "nonpayable",
      "type": "function"
    },
    {
      "inputs": [
        {
          "internalType": "uint256",
          "name": "_royalties",
          "type": "uint256"
        }
      ],
      "name": "setRoyalties",
      "outputs": [],
      "stateMutability": "nonpayable",
      "type": "function"
    },
    {
      "inputs": [],
      "name": "tokensSold",
      "outputs": [
        {
          "internalType": "uint256",
          "name": "_value",
          "type": "uint256"
        }
      ],
      "stateMutability": "view",
      "type": "function"
    },
    {
      "inputs": [
        {
          "internalType": "address",
          "name": "newOwner",
          "type": "address"
        }
      ],
      "name": "transferOwnership",
      "outputs": [],
      "stateMutability": "nonpayable",
      "type": "function"
    },
    {
      "inputs": [
        {
          "internalType": "uint256",
          "name": "_nftId",
          "type": "uint256"
        },
        {
          "internalType": "uint256",
          "name": "_newPrice",
          "type": "uint256"
        }
      ],
      "name": "updateMspcPriceById",
      "outputs": [],
      "stateMutability": "nonpayable",
      "type": "function"
    },
    {
      "inputs": [
        {
          "internalType": "uint256",
          "name": "_nftId",
          "type": "uint256"
        },
        {
          "internalType": "uint256",
          "name": "_newPrice",
          "type": "uint256"
        }
      ],
      "name": "updateUsdtPriceById",
      "outputs": [],
      "stateMutability": "nonpayable",
      "type": "function"
    },
    {
      "inputs": [],
      "name": "usdt",
      "outputs": [
        {
          "internalType": "contract IERC20",
          "name": "",
          "type": "address"
        }
      ],
      "stateMutability": "view",
      "type": "function"
    }
  ],
  "bytecode": "0x6080604052600a6006553480156200001657600080fd5b5060405162002283380380620022838339810160408190526200003991620000fc565b62000044336200008f565b6001808055600480546001600160a01b039485166001600160a01b031991821617909155600580549390941692169190911790915568db575565af3b45000060075560085562000133565b600080546001600160a01b038381166001600160a01b0319831681178455604051919092169283917f8be0079c531659141344cd1fd0a4f28419497f9722a3daafe3b4186f6b6457e09190a35050565b80516001600160a01b0381168114620000f757600080fd5b919050565b600080604083850312156200010f578182fd5b6200011a83620000df565b91506200012a60208401620000df565b90509250929050565b61214080620001436000396000f3fe608060405234801561001057600080fd5b50600436106101a85760003560e01c80635e4df9e4116100f9578063e1eb0ae311610097578063f053dc5c11610071578063f053dc5c14610361578063f064c32e1461036a578063f1da0b5a14610372578063f2fde38b1461038557600080fd5b8063e1eb0ae314610332578063e427c12714610345578063e81cda6b1461034e57600080fd5b80638da5cb5b116100d35780638da5cb5b146102f3578063b806d87214610304578063c2fb353e1461030c578063c9d1e9331461031f57600080fd5b80635e4df9e4146102b7578063715018a6146102d85780638a4bc2ad146102e057600080fd5b80632075c038116101665780632f48ab7d116101405780632f48ab7d1461025c5780632f9876de14610287578063518ab2a81461029a5780635538f194146102a457600080fd5b80632075c0381461022d578063286c3b13146102365780632b80183f1461024957600080fd5b8062b921cb146101ad5780630bbf5a32146101ca5780630e147653146101df578063113bec78146101f25780631ab702d814610205578063202e374014610218575b600080fd5b6002546101b79081565b6040519081526020015b60405180910390f35b6101dd6101d8366004611e3a565b610398565b005b6101dd6101ed366004611ebc565b6107f8565b6101dd610200366004611e8c565b610870565b6101dd610213366004611e3a565b61089f565b610220610ced565b6040516101c19190611fca565b6101b760075481565b6101dd610244366004611ebc565b610efd565b6101dd610257366004611e8c565b610f75565b60045461026f906001600160a01b031681565b6040516001600160a01b0390911681526020016101c1565b6101dd610295366004611ebc565b610fa4565b6003546101b79081565b6101dd6102b2366004611e3a565b610fe3565b6102ca6102c5366004611ebc565b611281565b6040516101c1929190611fdd565b6101dd611442565b60055461026f906001600160a01b031681565b6000546001600160a01b031661026f565b6101b7611478565b6101dd61031a366004611e8c565b611497565b61022061032d366004611e19565b6114c6565b6102ca610340366004611edd565b6116b8565b6101b760085481565b6102ca61035c366004611edd565b61189f565b6101b760065481565b610220611a6a565b6101dd610380366004611ebc565b611c71565b6101dd610393366004611e19565b611cb0565b600260015414156103c45760405162461bcd60e51b81526004016103bb90612034565b60405180910390fd5b60026001556008546040516370a0823160e01b81523360048201526001600160a01b038516906370a082319060240160206040518083038186803b15801561040b57600080fd5b505afa15801561041f573d6000803e3d6000fd5b505050506040513d601f19601f820116820180604052508101906104439190611ea4565b106104865760405162461bcd60e51b81526020600482015260136024820152724e6f206d6f726520617661696c61626c652e2160681b60448201526064016103bb565b6000828152600960205260409020600601548181146104d95760405162461bcd60e51b815260206004820152600f60248201526e139bdd08195b9bdd59da081554d115608a1b60448201526064016103bb565b600083815260096020526040902060028101546004820180546001600160a01b0319811633179091556007909201805460ff19166001179055906001600160a01b0316801561068957600060646006548561053491906120a3565b61053e9190612083565b9050600061054c82866120c2565b6004805460008a815260096020526040908190206003015490516323b872dd60e01b81529394506001600160a01b03918216936323b872dd936105959333931691889101611fa6565b602060405180830381600087803b1580156105af57600080fd5b505af11580156105c3573d6000803e3d6000fd5b505050506040513d601f19601f820116820180604052508101906105e79190611e6c565b5060048054600089815260096020526040908190206003015490516323b872dd60e01b81526001600160a01b03928316936323b872dd9361062f933393911691879101611fa6565b602060405180830381600087803b15801561064957600080fd5b505af115801561065d573d6000803e3d6000fd5b505050506040513d601f19601f820116820180604052508101906106819190611e6c565b505050610724565b60048054600087815260096020526040908190206003015490516323b872dd60e01b81526001600160a01b03928316936323b872dd936106d0933393911691899101611fa6565b602060405180830381600087803b1580156106ea57600080fd5b505af11580156106fe573d6000803e3d6000fd5b505050506040513d601f19601f820116820180604052508101906107229190611e6c565b505b610732600380546001019055565b6040516323b872dd60e01b81526001600160a01b038716906323b872dd9061076290309033908790600401611fa6565b600060405180830381600087803b15801561077c57600080fd5b505af1158015610790573d6000803e3d6000fd5b5050604080516001600160a01b038581168252336020830152600082840152606082018890529151869450918a16925088917fe7b815310d111c0b3e2e0f151988ee1cbc9e27c310e21cd102573475cf0869c29181900360800190a450506001805550505050565b60008281526009602052604090206004015482906001600160a01b0316331461085a5760405162461bcd60e51b8152602060048201526014602482015273105d5d1a1bdc9a5e985d1a5bdb8819195b9a595960621b60448201526064016103bb565b5060009182526009602052604090912060050155565b6000546001600160a01b0316331461089a5760405162461bcd60e51b81526004016103bb90611fff565b600755565b600260015414156108c25760405162461bcd60e51b81526004016103bb90612034565b60026001556008546040516370a0823160e01b81523360048201526001600160a01b038516906370a082319060240160206040518083038186803b15801561090957600080fd5b505afa15801561091d573d6000803e3d6000fd5b505050506040513d601f19601f820116820180604052508101906109419190611ea4565b106109845760405162461bcd60e51b81526020600482015260136024820152724e6f206d6f726520617661696c61626c652e2160681b60448201526064016103bb565b6007548110156109c85760405162461bcd60e51b815260206004820152600f60248201526e4e6f7420656e6f756768204d53504360881b60448201526064016103bb565b600082815260096020526040902060028101546004820180546001600160a01b0319811633179091556007909201805460ff19166001179055906001600160a01b03168015610b7c576000606460065485610a2391906120a3565b610a2d9190612083565b90506000610a3b82866120c2565b600554600088815260096020526040908190206003015490516323b872dd60e01b81529293506001600160a01b03918216926323b872dd92610a869233929116908790600401611fa6565b602060405180830381600087803b158015610aa057600080fd5b505af1158015610ab4573d6000803e3d6000fd5b505050506040513d601f19601f82011682018060405250810190610ad89190611e6c565b50600554600087815260096020526040908190206003015490516323b872dd60e01b81526001600160a01b03928316926323b872dd92610b22923392909116908690600401611fa6565b602060405180830381600087803b158015610b3c57600080fd5b505af1158015610b50573d6000803e3d6000fd5b505050506040513d601f19601f82011682018060405250810190610b749190611e6c565b505050610c19565b600554600085815260096020526040908190206003015490516323b872dd60e01b81526001600160a01b03928316926323b872dd92610bc5923392909116908890600401611fa6565b602060405180830381600087803b158015610bdf57600080fd5b505af1158015610bf3573d6000803e3d6000fd5b505050506040513d601f19601f82011682018060405250810190610c179190611e6c565b505b610c27600380546001019055565b6040516323b872dd60e01b81526001600160a01b038616906323b872dd90610c5790309033908790600401611fa6565b600060405180830381600087803b158015610c7157600080fd5b505af1158015610c85573d6000803e3d6000fd5b5050604080516001600160a01b03858116825233602083015291810187905260006060820152859350908816915086907fe7b815310d111c0b3e2e0f151988ee1cbc9e27c310e21cd102573475cf0869c29060800160405180910390a4505060018055505050565b60606000610cfa60025490565b905060008060005b83811015610d5d573360096000610d1a84600161206b565b81526020810191909152604001600020600401546001600160a01b03161415610d4b57610d4860018461206b565b92505b80610d55816120d9565b915050610d02565b5060008267ffffffffffffffff811115610d8757634e487b7160e01b600052604160045260246000fd5b604051908082528060200260200182016040528015610dc057816020015b610dad611d9b565b815260200190600190039081610da55790505b50905060005b84811015610ef4573360096000610dde84600161206b565b81526020810191909152604001600020600401546001600160a01b03161415610ee2576000600981610e1184600161206b565b8152602080820192909252604090810160009081205480825260098452908290208251610100810184528154815260018201546001600160a01b039081169582019590955260028201549381019390935260038101548416606084015260048101549093166080830152600583015460a0830152600683015460c083015260079092015460ff16151560e08201528451919250908190859087908110610ec757634e487b7160e01b600052603260045260246000fd5b6020908102919091010152610edd60018661206b565b945050505b80610eec816120d9565b915050610dc6565b50949350505050565b60008281526009602052604090206004015482906001600160a01b03163314610f5f5760405162461bcd60e51b8152602060048201526014602482015273105d5d1a1bdc9a5e985d1a5bdb8819195b9a595960621b60448201526064016103bb565b5060009182526009602052604090912060060155565b6000546001600160a01b03163314610f9f5760405162461bcd60e51b81526004016103bb90611fff565b600655565b6000546001600160a01b03163314610fce5760405162461bcd60e51b81526004016103bb90611fff565b60009182526009602052604090912060050155565b600260015414156110065760405162461bcd60e51b81526004016103bb90612034565b6002600155806110585760405162461bcd60e51b815260206004820152601b60248201527f5072696365206d757374206265206d6f7265207468616e206f6e65000000000060448201526064016103bb565b611066600280546001019055565b600061107160025490565b9050604051806101000160405280828152602001856001600160a01b03168152602001848152602001336001600160a01b0316815260200160006001600160a01b03168152602001600754815260200183815260200160001515815250600960008381526020019081526020016000206000820151816000015560208201518160010160006101000a8154816001600160a01b0302191690836001600160a01b031602179055506040820151816002015560608201518160030160006101000a8154816001600160a01b0302191690836001600160a01b0316021790555060808201518160040160006101000a8154816001600160a01b0302191690836001600160a01b0316021790555060a0820151816005015560c0820151816006015560e08201518160070160006101000a81548160ff021916908315150217905550905050836001600160a01b03166323b872dd3330866040518463ffffffff1660e01b81526004016111e393929190611fa6565b600060405180830381600087803b1580156111fd57600080fd5b505af1158015611211573d6000803e3d6000fd5b505060075460408051338152600060208201819052918101929092526060820186905260808201528592506001600160a01b038716915083907f1bb5f69ee7d9e4ee896489d8a64fdfe3b1e82bc48ec7b9724355491abb04542d9060a00160405180910390a45050600180555050565b606060008061128f60025490565b905060008061129e87846120c2565b8611156112b2576112af87846120c2565b95505b60008667ffffffffffffffff8111156112db57634e487b7160e01b600052604160045260246000fd5b60405190808252806020026020018201604052801561131457816020015b611301611d9b565b8152602001906001900390816112f95790505b50905060015b848111611427576000818152600960205260409020600401546001600160a01b031661141557888310611407576000818152600960209081526040918290208251610100810184528154815260018201546001600160a01b039081169382019390935260028201549381019390935260038101548216606084015260048101549091166080830152600581015460a0830152600681015460c08301526007015460ff16151560e082015282856113cf816120d9565b9650815181106113ef57634e487b7160e01b600052603260045260246000fd5b60200260200101819052508784141561140757611427565b82611411816120d9565b9350505b8061141f816120d9565b91505061131a565b5080611433838a61206b565b95509550505050509250929050565b6000546001600160a01b0316331461146c5760405162461bcd60e51b81526004016103bb90611fff565b6114766000611d4b565b565b60008061148460035490565b60025461149191906120c2565b92915050565b6000546001600160a01b031633146114c15760405162461bcd60e51b81526004016103bb90611fff565b600855565b606060006114d360025490565b905060006114e060035490565b6002546114ed91906120c2565b90506000808267ffffffffffffffff81111561151957634e487b7160e01b600052604160045260246000fd5b60405190808252806020026020018201604052801561155257816020015b61153f611d9b565b8152602001906001900390816115375790505b50905060005b848110156116ae57600060098161157084600161206b565b81526020810191909152604001600020600401546001600160a01b0316141561169c576001600160a01b038716600960006115ac84600161206b565b81526020810191909152604001600020600101546001600160a01b0316141561169c5760006115dc82600161206b565b6000818152600960209081526040918290208251610100810184528154815260018201546001600160a01b039081169382019390935260028201549381019390935260038101548216606084015260048101549091166080830152600581015460a0830152600681015460c08301526007015460ff16151560e0820152845191925090819085908790811061168157634e487b7160e01b600052603260045260246000fd5b602090810291909101015261169760018661206b565b945050505b806116a6816120d9565b915050611558565b5095945050505050565b60606000806116c660025490565b90506000806116d588846120c2565b8711156116e9576116e688846120c2565b96505b60008767ffffffffffffffff81111561171257634e487b7160e01b600052604160045260246000fd5b60405190808252806020026020018201604052801561174b57816020015b611738611d9b565b8152602001906001900390816117305790505b50905060015b848111611883576000818152600960205260409020600401546001600160a01b0316611871576000818152600960205260409020600101546001600160a01b038981169116141561187157898310611863576000818152600960209081526040918290208251610100810184528154815260018201546001600160a01b039081169382019390935260028201549381019390935260038101548216606084015260048101549091166080830152600581015460a0830152600681015460c08301526007015460ff16151560e0820152828561182b816120d9565b96508151811061184b57634e487b7160e01b600052603260045260246000fd5b60200260200101819052508884141561186357611883565b8261186d816120d9565b9350505b8061187b816120d9565b915050611751565b508061188f838b61206b565b9550955050505050935093915050565b60606000806118ad60025490565b90506000806118bc88846120c2565b8711156118d0576118cd88846120c2565b96505b60008767ffffffffffffffff8111156118f957634e487b7160e01b600052604160045260246000fd5b60405190808252806020026020018201604052801561193257816020015b61191f611d9b565b8152602001906001900390816119175790505b50905060015b848111611883576000818152600960205260409020600401546001600160a01b0316611a58576000818152600960205260409020600101546001600160a01b0389811691161415611a5857898310611a4a576000818152600960209081526040918290208251610100810184528154815260018201546001600160a01b039081169382019390935260028201549381019390935260038101548216606084015260048101549091166080830152600581015460a0830152600681015460c08301526007015460ff16151560e08201528285611a12816120d9565b965081518110611a3257634e487b7160e01b600052603260045260246000fd5b602002602001018190525088841415611a4a57611883565b82611a54816120d9565b9350505b80611a62816120d9565b915050611938565b60606000611a7760025490565b905060008060005b83811015611ada573360096000611a9784600161206b565b81526020810191909152604001600020600301546001600160a01b03161415611ac857611ac560018461206b565b92505b80611ad2816120d9565b915050611a7f565b5060008267ffffffffffffffff811115611b0457634e487b7160e01b600052604160045260246000fd5b604051908082528060200260200182016040528015611b3d57816020015b611b2a611d9b565b815260200190600190039081611b225790505b50905060005b84811015610ef4573360096000611b5b84600161206b565b81526020810191909152604001600020600301546001600160a01b03161415611c5f576000600981611b8e84600161206b565b8152602080820192909252604090810160009081205480825260098452908290208251610100810184528154815260018201546001600160a01b039081169582019590955260028201549381019390935260038101548416606084015260048101549093166080830152600583015460a0830152600683015460c083015260079092015460ff16151560e08201528451919250908190859087908110611c4457634e487b7160e01b600052603260045260246000fd5b6020908102919091010152611c5a60018661206b565b945050505b80611c69816120d9565b915050611b43565b6000546001600160a01b03163314611c9b5760405162461bcd60e51b81526004016103bb90611fff565b60009182526009602052604090912060060155565b6000546001600160a01b03163314611cda5760405162461bcd60e51b81526004016103bb90611fff565b6001600160a01b038116611d3f5760405162461bcd60e51b815260206004820152602660248201527f4f776e61626c653a206e6577206f776e657220697320746865207a65726f206160448201526564647265737360d01b60648201526084016103bb565b611d4881611d4b565b50565b600080546001600160a01b038381166001600160a01b0319831681178455604051919092169283917f8be0079c531659141344cd1fd0a4f28419497f9722a3daafe3b4186f6b6457e09190a35050565b6040518061010001604052806000815260200160006001600160a01b031681526020016000815260200160006001600160a01b0316815260200160006001600160a01b0316815260200160008152602001600081526020016000151581525090565b80356001600160a01b0381168114611e1457600080fd5b919050565b600060208284031215611e2a578081fd5b611e3382611dfd565b9392505050565b600080600060608486031215611e4e578182fd5b611e5784611dfd565b95602085013595506040909401359392505050565b600060208284031215611e7d578081fd5b81518015158114611e33578182fd5b600060208284031215611e9d578081fd5b5035919050565b600060208284031215611eb5578081fd5b5051919050565b60008060408385031215611ece578182fd5b50508035926020909101359150565b600080600060608486031215611ef1578283fd5b8335925060208401359150611f0860408501611dfd565b90509250925092565b6000815180845260208085019450808401835b83811015611f9b57815180518852838101516001600160a01b03908116858a0152604080830151908a01526060808301518216908a01526080808301519091169089015260a0808201519089015260c0808201519089015260e0908101511515908801526101009096019590820190600101611f24565b509495945050505050565b6001600160a01b039384168152919092166020820152604081019190915260600190565b602081526000611e336020830184611f11565b604081526000611ff06040830185611f11565b90508260208301529392505050565b6020808252818101527f4f776e61626c653a2063616c6c6572206973206e6f7420746865206f776e6572604082015260600190565b6020808252601f908201527f5265656e7472616e637947756172643a207265656e7472616e742063616c6c00604082015260600190565b6000821982111561207e5761207e6120f4565b500190565b60008261209e57634e487b7160e01b81526012600452602481fd5b500490565b60008160001904831182151516156120bd576120bd6120f4565b500290565b6000828210156120d4576120d46120f4565b500390565b60006000198214156120ed576120ed6120f4565b5060010190565b634e487b7160e01b600052601160045260246000fdfea264697066735822122034eee81ab37e77df0d21837670d072d96f2f2ced391a983a6050b7e8d72bac0464736f6c63430008040033",
  "linkReferences": {},
  "deployedLinkReferences": {}
}