{
  "_format": "hh-sol-artifact-1",
  "contractName": "Mr",
  "sourceName": "contracts/Mr.sol",
  "abi": [
    {
      "inputs": [
        {
          "internalType": "address",
          "name": "_marketplaceAddress",
          "type": "address"
        }
      ],
      "stateMutability": "nonpayable",
      "type": "constructor"
    },
    {
      "anonymous": false,
      "inputs": [
        {
          "indexed": true,
          "internalType": "address",
          "name": "owner",
          "type": "address"
        },
        {
          "indexed": true,
          "internalType": "address",
          "name": "approved",
          "type": "address"
        },
        {
          "indexed": true,
          "internalType": "uint256",
          "name": "tokenId",
          "type": "uint256"
        }
      ],
      "name": "Approval",
      "type": "event"
    },
    {
      "anonymous": false,
      "inputs": [
        {
          "indexed": true,
          "internalType": "address",
          "name": "owner",
          "type": "address"
        },
        {
          "indexed": true,
          "internalType": "address",
          "name": "operator",
          "type": "address"
        },
        {
          "indexed": false,
          "internalType": "bool",
          "name": "approved",
          "type": "bool"
        }
      ],
      "name": "ApprovalForAll",
      "type": "event"
    },
    {
      "anonymous": false,
      "inputs": [
        {
          "indexed": true,
          "internalType": "address",
          "name": "previousOwner",
          "type": "address"
        },
        {
          "indexed": true,
          "internalType": "address",
          "name": "newOwner",
          "type": "address"
        }
      ],
      "name": "OwnershipTransferred",
      "type": "event"
    },
    {
      "anonymous": false,
      "inputs": [
        {
          "indexed": true,
          "internalType": "address",
          "name": "from",
          "type": "address"
        },
        {
          "indexed": true,
          "internalType": "address",
          "name": "to",
          "type": "address"
        },
        {
          "indexed": true,
          "internalType": "uint256",
          "name": "tokenId",
          "type": "uint256"
        }
      ],
      "name": "Transfer",
      "type": "event"
    },
    {
      "inputs": [
        {
          "internalType": "address",
          "name": "to",
          "type": "address"
        },
        {
          "internalType": "uint256",
          "name": "tokenId",
          "type": "uint256"
        }
      ],
      "name": "approve",
      "outputs": [],
      "stateMutability": "nonpayable",
      "type": "function"
    },
    {
      "inputs": [
        {
          "internalType": "address",
          "name": "owner",
          "type": "address"
        }
      ],
      "name": "balanceOf",
      "outputs": [
        {
          "internalType": "uint256",
          "name": "",
          "type": "uint256"
        }
      ],
      "stateMutability": "view",
      "type": "function"
    },
    {
      "inputs": [
        {
          "internalType": "uint256",
          "name": "tokenId",
          "type": "uint256"
        }
      ],
      "name": "getApproved",
      "outputs": [
        {
          "internalType": "address",
          "name": "",
          "type": "address"
        }
      ],
      "stateMutability": "view",
      "type": "function"
    },
    {
      "inputs": [
        {
          "internalType": "address",
          "name": "owner",
          "type": "address"
        },
        {
          "internalType": "address",
          "name": "operator",
          "type": "address"
        }
      ],
      "name": "isApprovedForAll",
      "outputs": [
        {
          "internalType": "bool",
          "name": "",
          "type": "bool"
        }
      ],
      "stateMutability": "view",
      "type": "function"
    },
    {
      "inputs": [],
      "name": "marketplaceAddress",
      "outputs": [
        {
          "internalType": "address",
          "name": "",
          "type": "address"
        }
      ],
      "stateMutability": "view",
      "type": "function"
    },
    {
      "inputs": [],
      "name": "mintToken",
      "outputs": [
        {
          "internalType": "uint256",
          "name": "",
          "type": "uint256"
        }
      ],
      "stateMutability": "nonpayable",
      "type": "function"
    },
    {
      "inputs": [],
      "name": "name",
      "outputs": [
        {
          "internalType": "string",
          "name": "",
          "type": "string"
        }
      ],
      "stateMutability": "view",
      "type": "function"
    },
    {
      "inputs": [],
      "name": "owner",
      "outputs": [
        {
          "internalType": "address",
          "name": "",
          "type": "address"
        }
      ],
      "stateMutability": "view",
      "type": "function"
    },
    {
      "inputs": [
        {
          "internalType": "uint256",
          "name": "tokenId",
          "type": "uint256"
        }
      ],
      "name": "ownerOf",
      "outputs": [
        {
          "internalType": "address",
          "name": "",
          "type": "address"
        }
      ],
      "stateMutability": "view",
      "type": "function"
    },
    {
      "inputs": [],
      "name": "renounceOwnership",
      "outputs": [],
      "stateMutability": "nonpayable",
      "type": "function"
    },
    {
      "inputs": [
        {
          "internalType": "address",
          "name": "from",
          "type": "address"
        },
        {
          "internalType": "address",
          "name": "to",
          "type": "address"
        },
        {
          "internalType": "uint256",
          "name": "tokenId",
          "type": "uint256"
        }
      ],
      "name": "safeTransferFrom",
      "outputs": [],
      "stateMutability": "nonpayable",
      "type": "function"
    },
    {
      "inputs": [
        {
          "internalType": "address",
          "name": "from",
          "type": "address"
        },
        {
          "internalType": "address",
          "name": "to",
          "type": "address"
        },
        {
          "internalType": "uint256",
          "name": "tokenId",
          "type": "uint256"
        },
        {
          "internalType": "bytes",
          "name": "_data",
          "type": "bytes"
        }
      ],
      "name": "safeTransferFrom",
      "outputs": [],
      "stateMutability": "nonpayable",
      "type": "function"
    },
    {
      "inputs": [
        {
          "internalType": "address",
          "name": "operator",
          "type": "address"
        },
        {
          "internalType": "bool",
          "name": "approved",
          "type": "bool"
        }
      ],
      "name": "setApprovalForAll",
      "outputs": [],
      "stateMutability": "nonpayable",
      "type": "function"
    },
    {
      "inputs": [
        {
          "internalType": "bytes4",
          "name": "interfaceId",
          "type": "bytes4"
        }
      ],
      "name": "supportsInterface",
      "outputs": [
        {
          "internalType": "bool",
          "name": "",
          "type": "bool"
        }
      ],
      "stateMutability": "view",
      "type": "function"
    },
    {
      "inputs": [],
      "name": "symbol",
      "outputs": [
        {
          "internalType": "string",
          "name": "",
          "type": "string"
        }
      ],
      "stateMutability": "view",
      "type": "function"
    },
    {
      "inputs": [
        {
          "internalType": "uint256",
          "name": "tokenId",
          "type": "uint256"
        }
      ],
      "name": "tokenURI",
      "outputs": [
        {
          "internalType": "string",
          "name": "",
          "type": "string"
        }
      ],
      "stateMutability": "view",
      "type": "function"
    },
    {
      "inputs": [
        {
          "internalType": "address",
          "name": "from",
          "type": "address"
        },
        {
          "internalType": "address",
          "name": "to",
          "type": "address"
        },
        {
          "internalType": "uint256",
          "name": "tokenId",
          "type": "uint256"
        }
      ],
      "name": "transferFrom",
      "outputs": [],
      "stateMutability": "nonpayable",
      "type": "function"
    },
    {
      "inputs": [
        {
          "internalType": "address",
          "name": "newOwner",
          "type": "address"
        }
      ],
      "name": "transferOwnership",
      "outputs": [],
      "stateMutability": "nonpayable",
      "type": "function"
    }
  ],
  "bytecode": "0x60806040523480156200001157600080fd5b50604051620021f6380380620021f6833981016040819052620000349162000717565b60408051808201825260098152684d724d6f6e4d65746160b81b6020808301918252835180850190945260048452634d724d4d60e01b908401528151919291620000819160009162000671565b5080516200009790600190602084019062000671565b505050620000b4620000ae6200011c60201b60201c565b62000120565b600980546001600160a01b0319166001600160a01b038316179055620000e7600862000172602090811b620009c417901c565b60005b600a8110156200011457620000fe6200017b565b50806200010b816200086e565b915050620000ea565b5050620008cf565b3390565b600780546001600160a01b038381166001600160a01b0319831681179093556040519116919082907f8be0079c531659141344cd1fd0a4f28419497f9722a3daafe3b4186f6b6457e090600090a35050565b80546001019055565b6007546000906001600160a01b03163314620001de5760405162461bcd60e51b815260206004820181905260248201527f4f776e61626c653a2063616c6c6572206973206e6f7420746865206f776e657260448201526064015b60405180910390fd5b6000620001f760086200027d60201b620009cd1760201c565b905062000205338262000281565b62000248816200022083620003ca60201b620009d11760201c565b60405160200162000232919062000747565b60408051601f19818403018152919052620004ff565b60095462000261906001600160a01b03166001620005a2565b6200027860086200017260201b620009c41760201c565b905090565b5490565b6001600160a01b038216620002d95760405162461bcd60e51b815260206004820181905260248201527f4552433732313a206d696e7420746f20746865207a65726f20616464726573736044820152606401620001d5565b6000818152600260205260409020546001600160a01b031615620003405760405162461bcd60e51b815260206004820152601c60248201527f4552433732313a20746f6b656e20616c7265616479206d696e746564000000006044820152606401620001d5565b6001600160a01b03821660009081526003602052604081208054600192906200036b908490620007e5565b909155505060008181526002602052604080822080546001600160a01b0319166001600160a01b03861690811790915590518392907fddf252ad1be2c89b69c2b068fc378daa952ba7f163c4a11628f55a4df523b3ef908290a45b5050565b606081620003ef5750506040805180820190915260018152600360fc1b602082015290565b8160005b81156200041f578062000406816200086e565b9150620004179050600a8362000800565b9150620003f3565b6000816001600160401b038111156200044857634e487b7160e01b600052604160045260246000fd5b6040519080825280601f01601f19166020018201604052801562000473576020820181803683370190505b5090505b8415620004f7576200048b60018362000817565b91506200049a600a866200088c565b620004a7906030620007e5565b60f81b818381518110620004cb57634e487b7160e01b600052603260045260246000fd5b60200101906001600160f81b031916908160001a905350620004ef600a8662000800565b945062000477565b949350505050565b6000828152600260205260409020546001600160a01b03166200057c5760405162461bcd60e51b815260206004820152602e60248201527f45524337323155524953746f726167653a2055524920736574206f66206e6f6e60448201526d32bc34b9ba32b73a103a37b5b2b760911b6064820152608401620001d5565b600082815260066020908152604090912082516200059d9284019062000671565b505050565b620003c63383836001600160a01b038216831415620006045760405162461bcd60e51b815260206004820152601960248201527f4552433732313a20617070726f766520746f2063616c6c6572000000000000006044820152606401620001d5565b6001600160a01b03838116600081815260056020908152604080832094871680845294825291829020805460ff191686151590811790915591519182527f17307eab39ab6107e8899845ad3d59bd9653f200f220920489ca2b5937696c31910160405180910390a3505050565b8280546200067f9062000831565b90600052602060002090601f016020900481019282620006a35760008555620006ee565b82601f10620006be57805160ff1916838001178555620006ee565b82800160010185558215620006ee579182015b82811115620006ee578251825591602001919060010190620006d1565b50620006fc92915062000700565b5090565b5b80821115620006fc576000815560010162000701565b60006020828403121562000729578081fd5b81516001600160a01b038116811462000740578182fd5b9392505050565b7f68747470733a2f2f746573742d6d722d6d6f6e6d6574612e73332e61702d736f8152600060207f757468656173742d312e616d617a6f6e6177732e636f6d2f6a736f6e2f000000818401528351825b81811015620007b557858101830151858201603d0152820162000797565b81811115620007c75783603d83870101525b5064173539b7b760d91b603d94909101938401525050604201919050565b60008219821115620007fb57620007fb620008a3565b500190565b600082620008125762000812620008b9565b500490565b6000828210156200082c576200082c620008a3565b500390565b600181811c908216806200084657607f821691505b602082108114156200086857634e487b7160e01b600052602260045260246000fd5b50919050565b6000600019821415620008855762000885620008a3565b5060010190565b6000826200089e576200089e620008b9565b500690565b634e487b7160e01b600052601160045260246000fd5b634e487b7160e01b600052601260045260246000fd5b61191780620008df6000396000f3fe608060405234801561001057600080fd5b50600436106101165760003560e01c8063715018a6116100a2578063b88d4fde11610071578063b88d4fde1461022e578063c87b56dd14610241578063daa17f4914610254578063e985e9c514610267578063f2fde38b146102a357600080fd5b8063715018a6146101fa5780638da5cb5b1461020257806395d89b4114610213578063a22cb4651461021b57600080fd5b80632004ffd9116100e95780632004ffd91461019857806323b872dd146101ae57806342842e0e146101c15780636352211e146101d457806370a08231146101e757600080fd5b806301ffc9a71461011b57806306fdde0314610143578063081812fc14610158578063095ea7b314610183575b600080fd5b61012e610129366004611563565b6102b6565b60405190151581526020015b60405180910390f35b61014b610308565b60405161013a91906116c5565b61016b61016636600461159b565b61039a565b6040516001600160a01b03909116815260200161013a565b61019661019136600461153a565b610427565b005b6101a061053d565b60405190815260200161013a565b6101966101bc3660046113f0565b6105dc565b6101966101cf3660046113f0565b61060d565b61016b6101e236600461159b565b610628565b6101a06101f53660046113a4565b61069f565b610196610726565b6007546001600160a01b031661016b565b61014b61075c565b610196610229366004611500565b61076b565b61019661023c36600461142b565b61077a565b61014b61024f36600461159b565b6107b2565b60095461016b906001600160a01b031681565b61012e6102753660046113be565b6001600160a01b03918216600090815260056020908152604080832093909416825291909152205460ff1690565b6101966102b13660046113a4565b610929565b60006001600160e01b031982166380ac58cd60e01b14806102e757506001600160e01b03198216635b5e139f60e01b145b8061030257506301ffc9a760e01b6001600160e01b03198316145b92915050565b6060600080546103179061181f565b80601f01602080910402602001604051908101604052809291908181526020018280546103439061181f565b80156103905780601f1061036557610100808354040283529160200191610390565b820191906000526020600020905b81548152906001019060200180831161037357829003601f168201915b5050505050905090565b60006103a582610aeb565b61040b5760405162461bcd60e51b815260206004820152602c60248201527f4552433732313a20617070726f76656420717565727920666f72206e6f6e657860448201526b34b9ba32b73a103a37b5b2b760a11b60648201526084015b60405180910390fd5b506000908152600460205260409020546001600160a01b031690565b600061043282610628565b9050806001600160a01b0316836001600160a01b031614156104a05760405162461bcd60e51b815260206004820152602160248201527f4552433732313a20617070726f76616c20746f2063757272656e74206f776e656044820152603960f91b6064820152608401610402565b336001600160a01b03821614806104bc57506104bc8133610275565b61052e5760405162461bcd60e51b815260206004820152603860248201527f4552433732313a20617070726f76652063616c6c6572206973206e6f74206f7760448201527f6e6572206e6f7220617070726f76656420666f7220616c6c00000000000000006064820152608401610402565b6105388383610b08565b505050565b6007546000906001600160a01b0316331461056a5760405162461bcd60e51b81526004016104029061172a565b600061057560085490565b90506105813382610b76565b6105b28161058e836109d1565b60405160200161059e919061160e565b604051602081830303815290604052610ca9565b6009546105c9906001600160a01b0316600161076b565b6105d7600880546001019055565b905090565b6105e63382610d34565b6106025760405162461bcd60e51b81526004016104029061175f565b610538838383610e1a565b6105388383836040518060200160405280600081525061077a565b6000818152600260205260408120546001600160a01b0316806103025760405162461bcd60e51b815260206004820152602960248201527f4552433732313a206f776e657220717565727920666f72206e6f6e657869737460448201526832b73a103a37b5b2b760b91b6064820152608401610402565b60006001600160a01b03821661070a5760405162461bcd60e51b815260206004820152602a60248201527f4552433732313a2062616c616e636520717565727920666f7220746865207a65604482015269726f206164647265737360b01b6064820152608401610402565b506001600160a01b031660009081526003602052604090205490565b6007546001600160a01b031633146107505760405162461bcd60e51b81526004016104029061172a565b61075a6000610fb6565b565b6060600180546103179061181f565b610776338383611008565b5050565b6107843383610d34565b6107a05760405162461bcd60e51b81526004016104029061175f565b6107ac848484846110d7565b50505050565b60606107bd82610aeb565b6108235760405162461bcd60e51b815260206004820152603160248201527f45524337323155524953746f726167653a2055524920717565727920666f72206044820152703737b732bc34b9ba32b73a103a37b5b2b760791b6064820152608401610402565b6000828152600660205260408120805461083c9061181f565b80601f01602080910402602001604051908101604052809291908181526020018280546108689061181f565b80156108b55780601f1061088a576101008083540402835291602001916108b5565b820191906000526020600020905b81548152906001019060200180831161089857829003601f168201915b5050505050905060006108d360408051602081019091526000815290565b90508051600014156108e6575092915050565b8151156109185780826040516020016109009291906115df565b60405160208183030381529060405292505050919050565b6109218461110a565b949350505050565b6007546001600160a01b031633146109535760405162461bcd60e51b81526004016104029061172a565b6001600160a01b0381166109b85760405162461bcd60e51b815260206004820152602660248201527f4f776e61626c653a206e6577206f776e657220697320746865207a65726f206160448201526564647265737360d01b6064820152608401610402565b6109c181610fb6565b50565b80546001019055565b5490565b6060816109f55750506040805180820190915260018152600360fc1b602082015290565b8160005b8115610a1f5780610a098161185a565b9150610a189050600a836117c8565b91506109f9565b60008167ffffffffffffffff811115610a4857634e487b7160e01b600052604160045260246000fd5b6040519080825280601f01601f191660200182016040528015610a72576020820181803683370190505b5090505b841561092157610a876001836117dc565b9150610a94600a86611875565b610a9f9060306117b0565b60f81b818381518110610ac257634e487b7160e01b600052603260045260246000fd5b60200101906001600160f81b031916908160001a905350610ae4600a866117c8565b9450610a76565b6000908152600260205260409020546001600160a01b0316151590565b600081815260046020526040902080546001600160a01b0319166001600160a01b0384169081179091558190610b3d82610628565b6001600160a01b03167f8c5be1e5ebec7d5bd14f71427d1e84f3dd0314c0f7b2291e5b200ac8c7c3b92560405160405180910390a45050565b6001600160a01b038216610bcc5760405162461bcd60e51b815260206004820181905260248201527f4552433732313a206d696e7420746f20746865207a65726f20616464726573736044820152606401610402565b610bd581610aeb565b15610c225760405162461bcd60e51b815260206004820152601c60248201527f4552433732313a20746f6b656e20616c7265616479206d696e746564000000006044820152606401610402565b6001600160a01b0382166000908152600360205260408120805460019290610c4b9084906117b0565b909155505060008181526002602052604080822080546001600160a01b0319166001600160a01b03861690811790915590518392907fddf252ad1be2c89b69c2b068fc378daa952ba7f163c4a11628f55a4df523b3ef908290a45050565b610cb282610aeb565b610d155760405162461bcd60e51b815260206004820152602e60248201527f45524337323155524953746f726167653a2055524920736574206f66206e6f6e60448201526d32bc34b9ba32b73a103a37b5b2b760911b6064820152608401610402565b60008281526006602090815260409091208251610538928401906112ef565b6000610d3f82610aeb565b610da05760405162461bcd60e51b815260206004820152602c60248201527f4552433732313a206f70657261746f7220717565727920666f72206e6f6e657860448201526b34b9ba32b73a103a37b5b2b760a11b6064820152608401610402565b6000610dab83610628565b9050806001600160a01b0316846001600160a01b03161480610de65750836001600160a01b0316610ddb8461039a565b6001600160a01b0316145b8061092157506001600160a01b0380821660009081526005602090815260408083209388168352929052205460ff16610921565b826001600160a01b0316610e2d82610628565b6001600160a01b031614610e915760405162461bcd60e51b815260206004820152602560248201527f4552433732313a207472616e736665722066726f6d20696e636f72726563742060448201526437bbb732b960d91b6064820152608401610402565b6001600160a01b038216610ef35760405162461bcd60e51b8152602060048201526024808201527f4552433732313a207472616e7366657220746f20746865207a65726f206164646044820152637265737360e01b6064820152608401610402565b610efe600082610b08565b6001600160a01b0383166000908152600360205260408120805460019290610f279084906117dc565b90915550506001600160a01b0382166000908152600360205260408120805460019290610f559084906117b0565b909155505060008181526002602052604080822080546001600160a01b0319166001600160a01b0386811691821790925591518493918716917fddf252ad1be2c89b69c2b068fc378daa952ba7f163c4a11628f55a4df523b3ef91a4505050565b600780546001600160a01b038381166001600160a01b0319831681179093556040519116919082907f8be0079c531659141344cd1fd0a4f28419497f9722a3daafe3b4186f6b6457e090600090a35050565b816001600160a01b0316836001600160a01b0316141561106a5760405162461bcd60e51b815260206004820152601960248201527f4552433732313a20617070726f766520746f2063616c6c6572000000000000006044820152606401610402565b6001600160a01b03838116600081815260056020908152604080832094871680845294825291829020805460ff191686151590811790915591519182527f17307eab39ab6107e8899845ad3d59bd9653f200f220920489ca2b5937696c31910160405180910390a3505050565b6110e2848484610e1a565b6110ee848484846111e2565b6107ac5760405162461bcd60e51b8152600401610402906116d8565b606061111582610aeb565b6111795760405162461bcd60e51b815260206004820152602f60248201527f4552433732314d657461646174613a2055524920717565727920666f72206e6f60448201526e3732bc34b9ba32b73a103a37b5b2b760891b6064820152608401610402565b600061119060408051602081019091526000815290565b905060008151116111b057604051806020016040528060008152506111db565b806111ba846109d1565b6040516020016111cb9291906115df565b6040516020818303038152906040525b9392505050565b60006001600160a01b0384163b156112e457604051630a85bd0160e11b81526001600160a01b0385169063150b7a0290611226903390899088908890600401611688565b602060405180830381600087803b15801561124057600080fd5b505af1925050508015611270575060408051601f3d908101601f1916820190925261126d9181019061157f565b60015b6112ca573d80801561129e576040519150601f19603f3d011682016040523d82523d6000602084013e6112a3565b606091505b5080516112c25760405162461bcd60e51b8152600401610402906116d8565b805181602001fd5b6001600160e01b031916630a85bd0160e11b149050610921565b506001949350505050565b8280546112fb9061181f565b90600052602060002090601f01602090048101928261131d5760008555611363565b82601f1061133657805160ff1916838001178555611363565b82800160010185558215611363579182015b82811115611363578251825591602001919060010190611348565b5061136f929150611373565b5090565b5b8082111561136f5760008155600101611374565b80356001600160a01b038116811461139f57600080fd5b919050565b6000602082840312156113b5578081fd5b6111db82611388565b600080604083850312156113d0578081fd5b6113d983611388565b91506113e760208401611388565b90509250929050565b600080600060608486031215611404578081fd5b61140d84611388565b925061141b60208501611388565b9150604084013590509250925092565b60008060008060808587031215611440578081fd5b61144985611388565b935061145760208601611388565b925060408501359150606085013567ffffffffffffffff8082111561147a578283fd5b818701915087601f83011261148d578283fd5b81358181111561149f5761149f6118b5565b604051601f8201601f19908116603f011681019083821181831017156114c7576114c76118b5565b816040528281528a60208487010111156114df578586fd5b82602086016020830137918201602001949094529598949750929550505050565b60008060408385031215611512578182fd5b61151b83611388565b91506020830135801515811461152f578182fd5b809150509250929050565b6000806040838503121561154c578182fd5b61155583611388565b946020939093013593505050565b600060208284031215611574578081fd5b81356111db816118cb565b600060208284031215611590578081fd5b81516111db816118cb565b6000602082840312156115ac578081fd5b5035919050565b600081518084526115cb8160208601602086016117f3565b601f01601f19169290920160200192915050565b600083516115f18184602088016117f3565b8351908301906116058183602088016117f3565b01949350505050565b7f68747470733a2f2f746573742d6d722d6d6f6e6d6574612e73332e61702d736f81527f757468656173742d312e616d617a6f6e6177732e636f6d2f6a736f6e2f00000060208201526000825161166c81603d8501602087016117f3565b64173539b7b760d91b603d939091019283015250604201919050565b6001600160a01b03858116825284166020820152604081018390526080606082018190526000906116bb908301846115b3565b9695505050505050565b6020815260006111db60208301846115b3565b60208082526032908201527f4552433732313a207472616e7366657220746f206e6f6e20455243373231526560408201527131b2b4bb32b91034b6b83632b6b2b73a32b960711b606082015260800190565b6020808252818101527f4f776e61626c653a2063616c6c6572206973206e6f7420746865206f776e6572604082015260600190565b60208082526031908201527f4552433732313a207472616e736665722063616c6c6572206973206e6f74206f6040820152701ddb995c881b9bdc88185c1c1c9bdd9959607a1b606082015260800190565b600082198211156117c3576117c3611889565b500190565b6000826117d7576117d761189f565b500490565b6000828210156117ee576117ee611889565b500390565b60005b8381101561180e5781810151838201526020016117f6565b838111156107ac5750506000910152565b600181811c9082168061183357607f821691505b6020821081141561185457634e487b7160e01b600052602260045260246000fd5b50919050565b600060001982141561186e5761186e611889565b5060010190565b6000826118845761188461189f565b500690565b634e487b7160e01b600052601160045260246000fd5b634e487b7160e01b600052601260045260246000fd5b634e487b7160e01b600052604160045260246000fd5b6001600160e01b0319811681146109c157600080fdfea2646970667358221220234b30156ba57ae73e7f876e3771483752572abb7631a9b5b543646e2f2c6fcc64736f6c63430008040033",
  "linkReferences": {},
  "deployedLinkReferences": {}
}